:1000000018C032C031C030C02FC07CC02DC02CC041
:100010002BC0F0C229C028C027C026C025C024C0DC
:1000200023C022C021C000201414121204040202B2
:10003000080011241FBECFE5D4E0DEBFCDBF10E025
:10004000A0E6B0E0E4E5F8E002C005900D92A2362B
:10005000B107D9F720E0A2E6B0E001C01D92A337B6
:10006000B207E1F721D1F4C3CBCF90BD89B988E0C5
:100070008AB908955D9BFECF8CB90895CF93DF9325
:10008000EC0101C0F7DF89918111FCCFDF91CF91A5
:100090000895CF93DF93EC0101C0ECDFFE012196C0
:1000A00084918111FACFDF91CF910895CF93DF939F
:1000B000CDB7DEB761970FB6F894DEBF0FBECDBFE8
:1000C000242F30E0AE014F5F5F4F5ED3CE0101962B
:1000D000D5DF61960FB6F894DEBF0FBECDBFDF91BE
:1000E000CF910895B898C09A8EB582608EBD8EB5B6
:1000F0008F7B8EBD10926E0089B7806289BF10928F
:10010000710008951F920F920FB60F9211242F9332
:100110003F938F939F9386B597B52091620030915E
:100120006300821B930B26B537B530936300209391
:1001300062002EB530E423272EBD8B3B27E09207CB
:1001400010F010926E0020916E00222319F021E031
:100150002093640020916E00211111C01092700054
:1001600010926F00109265002EB520642EBD209174
:100170006E002F5F20936E0022E020936400209198
:100180006400213009F06CC08B3B27E0920710F02F
:100190001092640020916400213009F061C0823423
:1001A000944028F080916E008F5F80936E00809164
:1001B0006E00823008F44FC080916E0080FD4BC00D
:1001C00080916F0090917000880F991F909370003C
:1001D00080936F000EB406FE09C080916F0090916D
:1001E000700081609093700080936F008091650033
:1001F0008F5F809365008D3070F180916F009091DA
:10020000700080917100811121C080916F009091E8
:1002100070008F73992780936D0080916F0090918B
:100220007000807C977026E0969587952A95E1F777
:1002300080936C0080916F00909170008827987077
:10024000892F86958695869580936B001092640021
:1002500081E08093710080916E008F5F80936E00CB
:1002600080916400843029F410926E008EB58F7BEB
:100270008EBD80916400811105C010926E008EB514
:100280008F7B8EBD9F918F913F912F910F900FBECD
:100290000F901F90189597B1987F982B97B9369A21
:1002A00024B135B1C9010895379A329A80EC87B9E3
:1002B000B99ABA9ABB9ABC9ABD9A8C9A8A98929A21
:1002C0008B98939A83E390E0D0DE0CDF789489B723
:1002D000816089BF83B7826083BFC0E08BE0A82EB6
:1002E000DAE011E009E097E0F92E25E0E22E33E0B4
:1002F000D32E49E1C42E50E1B52E01C0C1E080915A
:100300007100882309F406C180916F0090917000FC
:100310008D31984009F5809166008823E9F080913D
:10032000660081508093660080916A008A3148F4AB
:1003300080916A00853028F080916A008550809312
:100340006A0080916600853039F4B99ABA9ABB9AEE
:10035000BC9ABD9AC0926A0080916F009091700023
:1003600089309440F9F4809166008B30D8F4809104
:1003700066008F5F8093660080916A008A3138F44E
:1003800080916A0080916A008B5F80936A008091FF
:100390006600863039F4B998BA98BB98BC98BD9875
:1003A00010926A0080916F0090917000833896419E
:1003B00061F4D0926000809160006A2DD9D1E92F5C
:1003C000F0E0EA5DFF4FE491E8BB80916F0090910F
:1003D00070008136944061F4E0926000809160008A
:1003E0006A2DC6D1E92FF0E0EA5DFF4FE491E8BB4A
:1003F00080916F00909170008E35944061F4F0927E
:100400006000809160006A2DB3D1E92FF0E0EA5DD1
:10041000FF4FE491E8BB80916F00909170008F3B9B
:10042000954061F400936000809160006A2DA0D136
:10043000E92FF0E0EA5DFF4FE491E8BB80916F00A7
:10044000909170008B3F914161F410936000809116
:1004500060006A2D8DD1E92FF0E0EA5DFF4FE49155
:10046000E8BB80916F00909170008134944061F4FA
:10047000D0936000809160006A2D7AD1E92FF0E07E
:10048000EA5DFF4FE491E8BB80916F0090917000AE
:100490008730924161F410926000809160006A2D73
:1004A00067D1E92FF0E0EA5DFF4FE491E8BB80916E
:1004B0006F00909170008E37944161F580916000DB
:1004C0006A2D56D1E92FF0E0EA5DFF4FE491E8BBD9
:1004D00088B380937200809160004AD1809160005F
:1004E000993009F414C06A2D43D18091600097308F
:1004F00009F40DC06A2D3CD180916000953009F45B
:1005000006C06A2D35D1933029F480916000815066
:1005100080936000829960C08FE39CE90197F1F7B6
:1005200000C00000829958C0C13009F055C0B99A86
:10053000BA9ABB9ABC9ABD9A949A10926000809124
:1005400060006A2D15D1E92FF0E0EA5DFF4FE491DC
:10055000E8BB9FE728E381E0915020408040E1F72D
:1005600000C0000018BA84E096DE85339340A0F105
:1005700084E091DE8533934008F0C59A84E08BDEF9
:100580008F33934008F0C49A84E085DE8736934029
:1005900008F0C39A84E07FDE8538934008F0C29A61
:1005A00084E079DE833A934008F0C19A82B38B25C8
:1005B00082BB8FEF99E628E1815090402040E1F71F
:1005C00000C0000018BA8FEF93EC29E081509040F2
:1005D0002040E1F700C00000839907C08FE39CE949
:1005E0000197F1F700C0000080B3829B88CE839909
:1005F00085CE85CE1F920F920FB60F9211242F93A6
:100600003F936F937F938F939F93EF93FF9380918B
:1006100069008F5F80936900809160002BE0622FFA
:10062000A7D0983029F080916000A2D09430A1F436
:1006300080916700909168008C3D954089F580918C
:1006400060006BE095D0E92FF0E0EA5DFF4FE491A8
:10065000E8BB88B392E01FC080916000622F88D011
:10066000963031F08091600083D0923009F052C012
:1006700080916700909168008C3D954089F480914D
:1006800060006BE075D0E92FF0E0EA5DFF4FE49188
:10069000E8BB88B394E0892788BB88B38093720055
:1006A0008091670090916800883B9B4088F0109291
:1006B000680010926700809160006BE059D0E92FCC
:1006C000F0E0EA5DFF4FE491E8BB88B380937200ED
:1006D00080916700909168000196909368008093E4
:1006E00067008091690020916A006EE141D0921705
:1006F00020F08091720088BB2EC028B380916000EA
:100700006BE036D0E92FF0E0EA5DFF4FE491E09531
:10071000E22320C08091690030916A006EE128D008
:10072000931760F038B380916000622F21D0E92FD9
:10073000F0E0EA5DFF4FE491E32B0CC038B3809109
:100740006000622F15D0E92FF0E0EA5DFF4FE491E1
:10075000E095E323E8BBFF91EF919F918F917F910B
:100760006F913F912F910F900FBE0F901F90189592
:10077000991B79E004C0991F961708F0961B881FF3
:100780007A95C9F780950895FA01CF93FF93EF9377
:1007900022303CF125322CF5C22FE894CA3049F4BE
:1007A00097FB3EF490958095709561957F4F8F4FA4
:1007B0009F4F2C2F332744275527FF93EF9326D0A5
:1007C000EF91FF91605D6A330CF0695D6193B9014F
:1007D000CA01605070408040904059F716F4CDE255
:1007E000C19310828F919F91CF9100C0DC01FC01D9
:1007F000672F71917723E1F7329704C07C916D9355
:1008000070836291AE17BF07C8F30895A1E21A2E54
:10081000AA1BBB1BFD010DC0AA1FBB1FEE1FFF1FA4
:10082000A217B307E407F50720F0A21BB30BE40BF4
:10083000F50B661F771F881F991F1A9469F760953B
:100840007095809590959B01AC01BD01CF010895F5
:04085000F894FFCF4A
:0208540004009E
:00000001FF
