:1000000018C027C026C01EC324C071C022C021C092
:1000100020C01FC01EC01DC01CC01BC01AC019C0FC
:1000200018C017C016C000201414121204040202D3
:10003000080011241FBECFE5D4E0DEBFCDBF20E015
:10004000A0E6B0E001C01D92AE36B207E1F721D1C3
:10005000AAC3D6CF90BD89B988E08AB908955D9BBF
:10006000FECF8CB90895CF93DF93EC0101C0F7DF89
:1000700089918111FCCFDF91CF910895CF93DF93C8
:10008000EC0101C0ECDFFE01219684918111FACFD1
:10009000DF91CF910895CF93DF93CDB7DEB761970E
:1000A0000FB6F894DEBF0FBECDBF242F30E0AE01F7
:1000B0004F5F5F4F14D3CE010196D5DF61960FB627
:1000C000F894DEBF0FBECDBFDF91CF910895B898F1
:1000D000C09A8EB582608EBD8EB58F7B8EBD10921C
:1000E000690089B7806289BF10926C0008951F92E1
:1000F0000F920FB60F9211242F933F938F939F93DC
:1001000086B597B52091600030916100821B930BFA
:1001100026B537B530936100209360002EB530E4EA
:1001200023272EBD8B3B27E0920710F01092690029
:1001300020916900222319F021E020936200209190
:100140006900211111C010926B0010926A00109288
:1001500063002EB520642EBD209169002F5F20938F
:10016000690022E02093620020916200213009F0B2
:100170006CC08B3B27E0920710F010926200209138
:100180006200213009F061C08234944028F08091EF
:1001900069008F5F8093690080916900823008F464
:1001A0004FC08091690080FD4BC080916A009091A2
:1001B0006B00880F991F90936B0080936A000EB4B8
:1001C00006FE09C080916A0090916B008160909357
:1001D0006B0080936A00809163008F5F809363005F
:1001E0008D3070F180916A0090916B0080916C006D
:1001F000811121C080916A0090916B008F739927C3
:100200008093680080916A0090916B00807C977069
:1002100026E0969587952A95E1F78093670080916F
:100220006A0090916B0088279870892F8695869533
:100230008695809366001092620081E080936C0046
:10024000809169008F5F80936900809162008430A3
:1002500029F4109269008EB58F7B8EBD809162006B
:10026000811105C0109269008EB58F7B8EBD9F9164
:100270008F913F912F910F900FBE0F901F90189567
:1002800097B1987F982B97B9369A24B135B1C901A7
:100290000895379A329A80EC87B9B99ABA9ABB9A7C
:1002A000BC9ABD9A8C9A8A98929A8B98939A83E377
:1002B00090E0D0DE0CDF789489B7806889BF85B57F
:1002C0008F6085BD8FEF83BDD0E0CBE01AE001E009
:1002D00089E0F82E97E0E92E25E0D22E33E0C32EF8
:1002E00040E1B42E01C0D1E080916C00882309F474
:1002F000C7C080916A0090916B000B9760F060918D
:100300006A0070916B0080E090E04AE0C4DE8DE00E
:10031000A6DE8AE0A4DE80916A0090916B008338AB
:10032000964161F4C0926500809165006C2FCBD13D
:10033000E92FF0E0EA5DFF4FE491E8BB80916A00AD
:1003400090916B008136944061F4D0926500809169
:1003500065006C2FB8D1E92FF0E0EA5DFF4FE49122
:10036000E8BB80916A0090916B008E35944061F4F7
:10037000E0926500809165006C2FA5D1E92FF0E037
:10038000EA5DFF4FE491E8BB80916A0090916B00B9
:100390008F3B954061F4F0926500809165006C2F71
:1003A00092D1E92FF0E0EA5DFF4FE491E8BB809144
:1003B0006A0090916B008B3F914161F4009365005E
:1003C000809165006C2F7FD1E92FF0E0EA5DFF4F4F
:1003D000E491E8BB80916A0090916B008134944075
:1003E00061F410936500809165006C2F6CD1E92F4A
:1003F000F0E0EA5DFF4FE491E8BB80916A009091E4
:100400006B008730924161F4109265008091650025
:100410006C2F59D1E92FF0E0EA5DFF4FE491E8BB82
:1004200080916A0090916B008E37944149F58091DC
:1004300065006C2F48D1E92FF0E0EA5DFF4FE491B1
:10044000E8BB809165003FD180916500993009F447
:1004500014C06C2F38D180916500973009F40DC01D
:100460006C2F31D180916500953009F406C06C2F56
:100470002AD1933029F480916500815080936500E2
:100480008299C4C08FE39CE90197F1F700C0000096
:100490008299BCC0D13009F0B9C0949A85E0F0DEF1
:1004A000BC0180E090E04AE0F6DD8DE0D8DD8AE036
:1004B000D6DD9FE728E381E0915020408040E1F7BE
:1004C00000C0000085E0DCDE8533934008F0C59A6B
:1004D00085E0D6DE8835934008F0C49A85E0D0DE0A
:1004E0008C37934008F0C39A85E0CADE813A934086
:1004F00008F0C29A85E0C4DE843C934008F0C19ABB
:1005000082B38B2582BB85E0BBDEBC0180E090E03E
:100510004AE0C1DD8DE0A3DD8AE0A1DD88B38093F0
:100520006D008FEF90E722E0815090402040E1F78E
:1005300000C0000018BA8FEF90E722E08150904091
:100540002040E1F700C0000080916D0088BB8FEF74
:1005500090E722E0815090402040E1F700C0000089
:1005600018BA8FEF90E722E0815090402040E1F7E9
:1005700000C0000080916D0088BB8FEF90E722E003
:10058000815090402040E1F700C0000018BA8FEF82
:1005900090E722E0815090402040E1F700C0000049
:1005A00080916D0088BB8FEF90E722E081509040F2
:1005B0002040E1F700C0000018BA8FEF90E722E07A
:1005C000815090402040E1F700C0000080916D0014
:1005D00088BB8FEF99E628E1815090402040E1F7F9
:1005E00000C0000018BA8FEF93EC29E081509040D2
:1005F0002040E1F700C00000809165006C2F63D0BF
:10060000E92FF0E0EA5DFF4FE491E8BB839915C064
:100610008FE39CE90197F1F700C0000083990DC0BA
:10062000D13059F485E02CDEBC0180E090E04AE056
:1006300032DD8DE014DD8AE012DD829B55CE839998
:1006400052CE52CE1F920F920FB60F9211242F93BB
:100650006F937F938F939F93809164008F5F8093BC
:10066000640080916400843120F1109264008091D4
:1006700065002BE0622F27D0983009F40DC08091DF
:100680006500622F20D0963009F40FC0809165007C
:10069000622F19D0943019F488B392E008C0809189
:1006A0006500622F10D0923021F488B394E089273E
:1006B00088BB9F918F917F916F912F910F900FBE6B
:1006C0000F901F901895991B79E004C0991F9617F9
:1006D00008F0961B881F7A95C9F780950895FA014E
:1006E000CF93FF93EF9322303CF125322CF5C22FAC
:1006F000E894CA3049F497FB3EF490958095709544
:1007000061957F4F8F4F9F4F2C2F332744275527BD
:10071000FF93EF9326D0EF91FF91605D6A330CF069
:10072000695D6193B901CA0160507040804090409A
:1007300059F716F4CDE2C19310828F919F91CF911A
:1007400000C0DC01FC01672F71917723E1F732973C
:1007500004C07C916D9370836291AE17BF07C8F39C
:100760000895A1E21A2EAA1BBB1BFD010DC0AA1FF2
:10077000BB1FEE1FFF1FA217B307E407F50720F00A
:10078000A21BB30BE40BF50B661F771F881F991F85
:100790001A9469F760957095809590959B01AC01CE
:0A07A000BD01CF010895F894FFCFCA
:00000001FF
