:1000000018C032C031C030C02FC07CC02DC02CC041
:100010002BC010C429C028C027C026C025C024C0BA
:1000200023C022C021C000201414121204040202B2
:10003000080011241FBECFE5D4E0DEBFCDBF10E025
:10004000A0E6B0E0E4E9FAE002C005900D92A23625
:10005000B107D9F720E0A2E6B0E001C01D92AA37AF
:10006000B207E1F721D114C5CBCF90BD89B988E0A3
:100070008AB908955D9BFECF8CB90895CF93DF9325
:10008000EC0101C0F7DF89918111FCCFDF91CF91A5
:100090000895CF93DF93EC0101C0ECDFFE012196C0
:1000A00084918111FACFDF91CF910895CF93DF939F
:1000B000CDB7DEB761970FB6F894DEBF0FBECDBFE8
:1000C000242F30E0AE014F5F5F4F7ED4CE0101960A
:1000D000D5DF61960FB6F894DEBF0FBECDBFDF91BE
:1000E000CF910895B898C09A8EB582608EBD8EB5B6
:1000F0008F7B8EBD10926F0089B7806289BF10928E
:10010000720008951F920F920FB60F9211242F9331
:100110003F938F939F9386B597B52091620030915E
:100120006300821B930B26B537B530936300209391
:1001300062002EB530E423272EBD8B3B27E09207CB
:1001400010F010926F0020916F00222319F021E02F
:100150002093640020916F00211111C01092710052
:1001600010927000109265002EB520642EBD209173
:100170006F002F5F20936F0022E020936400209196
:100180006400213009F06CC08B3B27E0920710F02F
:100190001092640020916400213009F061C0823423
:1001A000944028F080916F008F5F80936F00809162
:1001B0006F00823008F44FC080916F0080FD4BC00B
:1001C0008091700090917100880F991F9093710039
:1001D000809370000EB406FE09C08091700090916B
:1001E0007100816090937100809370008091650030
:1001F0008F5F809365008D3070F1809170009091D9
:10020000710080917200811121C0809170009091E5
:1002100071008F73992780936E0080917000909188
:100220007100807C977026E0969587952A95E1F776
:1002300080936D0080917000909171008827987074
:10024000892F86958695869580936C001092640020
:1002500081E08093720080916F008F5F80936F00C8
:1002600080916400843029F410926F008EB58F7BEA
:100270008EBD80916400811105C010926F008EB513
:100280008F7B8EBD9F918F913F912F910F900FBECD
:100290000F901F90189597B1987F982B97B9369A21
:1002A00024B135B1C9010895379A329A80EC87B9E3
:1002B000B99ABA9ABB9ABC9ABD9A8C9A8A98929A21
:1002C0008B98939A83E390E0D0DE0CDF789489B723
:1002D000816089BF83B7826083BFD0E0CBE011E04B
:1002E00009E087E0F82E95E0E92E23E0D22E39E1EF
:1002F000C32E40E1B42E01C0D1E08091720088236A
:1003000009F4AAC1809170009091710080917000F1
:10031000909171008D31984009F040C0609170005B
:100320007091710080E090E04AE0C0DE8DE0A2DED6
:100330008AE0A0DE80916700882381F180916700C8
:1003400081508093670080916B008A3148F48091DE
:100350006B00853028F080916B00855080936B0096
:1003600080916700853039F4B99ABA9ABB9ABC9AE1
:10037000BD9AC0926B0060916B0070E080E090E0ED
:100380004AE094DE8DE076DE8AE074DE8DE072DE97
:100390008AE070DE8DE06EDE8AE06CDE80917000B7
:1003A0009091710089309440F1F5609170007091E6
:1003B000710080E090E04AE079DE8DE05BDE8AE06B
:1003C00059DE809167008B3070F5809167008F5FF8
:1003D0008093670080916B008A3138F480916B00C4
:1003E00080916B008B5F80936B00809167008630FB
:1003F00039F4B998BA98BB98BC98BD9810926B0024
:1004000060916B0070E080E090E04AE04FDE8DE0AC
:1004100031DE8AE02FDE8DE02DDE8AE02BDE8DE0FE
:1004200029DE8AE027DE8091700090917100833888
:100430009641C1F4609170007091710080E090E08D
:100440004AE034DE8DE016DE8AE014DED0926000F1
:10045000809160006C2FACD2E92FF0E0EA5DFF4F95
:10046000E491E8BB809170009091710081369440D6
:10047000C1F4609170007091710080E090E04AE0FA
:1004800015DE8DE0F7DD8AE0F5DDE0926000809119
:1004900060006C2F8DD2E92FF0E0EA5DFF4FE49110
:1004A000E8BB80917000909171008E359440C1F44A
:1004B000609170007091710080E090E04AE0F6DD9C
:1004C0008DE0D8DD8AE0D6DDF0926000809160009A
:1004D0006C2F6ED2E92FF0E0EA5DFF4FE491E8BBAC
:1004E00080917000909171008F3B9540C1F46091B4
:1004F00070007091710080E090E04AE0D7DD8DE0FF
:10050000B9DD8AE0B7DD00936000809160006C2F58
:100510004FD2E92FF0E0EA5DFF4FE491E8BB809114
:100520007000909171008B3F9141C1F46091700017
:100530007091710080E090E04AE0B8DD8DE09ADDD6
:100540008AE098DD10936000809160006C2F30D2BB
:10055000E92FF0E0EA5DFF4FE491E8BB8091700085
:100560009091710081349440C9F460917000709151
:10057000710080E090E04AE099DD8DE07BDD8AE06B
:1005800079DD8AE080936000809160006C2F10D24A
:10059000E92FF0E0EA5DFF4FE491E8BB8091700045
:1005A0009091710087309241C1F460917000709118
:1005B000710080E090E04AE079DD8DE05BDD8AE06B
:1005C00059DD10926000809160006C2FF1D1E92F0D
:1005D000F0E0EA5DFF4FE491E8BB809170009091FC
:1005E00071008E379441C1F5609170007091710077
:1005F00080E090E04AE05ADD8DE03CDD8AE03ADDC3
:10060000809160006C2FD4D1E92FF0E0EA5DFF4FBC
:10061000E491E8BB88B38093750080916000C8D1F5
:1006200080916000993009F414C06C2FC1D1809181
:100630006000973009F40DC06C2FBAD18091600032
:10064000953009F406C06C2FB3D1933029F4809112
:1006500060008150809360008299D0C08FE39CE954
:100660000197F1F700C000008299C8C0D13009F0AD
:10067000C5C0B99ABA9ABB9ABC9ABD9A949A85E0B9
:100680000ADEBC0180E090E04AE010DD8DE0F2DCA3
:100690008AE0F0DC9FE728E381E091502040804031
:1006A000E1F700C0000018BA85E0F5DD853393401E
:1006B00008F4A4C085E0EFDD8533934008F0C59AC7
:1006C00085E0E9DD8F33934008F0C49A85E0E3DDEF
:1006D0008736934008F0C39A85E0DDDD8538934086
:1006E00008F0C29A85E0D7DD833A934008F0C19ABA
:1006F00082B38B2582BB85E0CEDDBC0180E090E03B
:100700004AE0D4DC8DE0B6DC8AE0B4DC88B38093C8
:1007100075008FEF90E722E0815090402040E1F794
:1007200000C0000018BA8FEF90E722E0815090409F
:100730002040E1F700C000008091750088BB8FEF7A
:1007400090E722E0815090402040E1F700C0000097
:1007500018BA8FEF90E722E0815090402040E1F7F7
:1007600000C000008091750088BB8FEF90E722E009
:10077000815090402040E1F700C0000018BA8FEF90
:1007800090E722E0815090402040E1F700C0000057
:100790008091750088BB8FEF90E722E081509040F8
:1007A0002040E1F700C0000018BA8FEF90E722E088
:1007B000815090402040E1F700C00000809175001A
:1007C00088BB8FEF99E628E1815090402040E1F707
:1007D00000C0000018BA8FEF93EC29E081509040E0
:1007E0002040E1F700C00000809160006C2FE0D055
:1007F000E92FF0E0EA5DFF4FE491E8BB839915C073
:100800008FE39CE90197F1F700C0000083990DC0C8
:10081000D13059F485E03FDDBC0180E090E04AE052
:1008200045DC8DE027DC8AE025DC829B66CD839960
:1008300063CD63CD1F920F920FB60F9211242F93A9
:100840003F936F937F938F939F93EF93FF93809149
:100850006A008F5F80936A00809160002BE0622FB6
:10086000A7D0983029F080916000A2D09430A1F4F4
:1008700080916800909169008C3D954089F5809148
:1008800060006BE095D0E92FF0E0EA5DFF4FE49166
:10089000E8BB88B392E01FC080916000622F88D0CF
:1008A000963031F08091600083D0923009F052C0D0
:1008B00080916800909169008C3D954089F4809109
:1008C00060006BE075D0E92FF0E0EA5DFF4FE49146
:1008D000E8BB88B394E0892788BB88B38093750010
:1008E0008091680090916900883B9B4088F010924D
:1008F000690010926800809160006BE059D0E92F88
:10090000F0E0EA5DFF4FE491E8BB88B380937500A7
:10091000809168009091690001969093690080939E
:10092000680080916A0020916B006EE141D09217BF
:1009300020F08091750088BB2EC028B380916000A4
:100940006BE036D0E92FF0E0EA5DFF4FE491E095EF
:10095000E22320C080916A0030916B006EE128D0C4
:10096000931760F038B380916000622F21D0E92F97
:10097000F0E0EA5DFF4FE491E32B0CC038B38091C7
:100980006000622F15D0E92FF0E0EA5DFF4FE4919F
:10099000E095E323E8BBFF91EF919F918F917F91C9
:1009A0006F913F912F910F900FBE0F901F90189550
:1009B000991B79E004C0991F961708F0961B881FB1
:1009C0007A95C9F780950895FA01CF93FF93EF9335
:1009D00022303CF125322CF5C22FE894CA3049F47C
:1009E00097FB3EF490958095709561957F4F8F4F62
:1009F0009F4F2C2F332744275527FF93EF9326D063
:100A0000EF91FF91605D6A330CF0695D6193B9010C
:100A1000CA01605070408040904059F716F4CDE212
:100A2000C19310828F919F91CF9100C0DC01FC0196
:100A3000672F71917723E1F7329704C07C916D9312
:100A400070836291AE17BF07C8F30895A1E21A2E12
:100A5000AA1BBB1BFD010DC0AA1FBB1FEE1FFF1F62
:100A6000A217B307E407F50720F0A21BB30BE40BB2
:100A7000F50B661F771F881F991F1A9469F76095F9
:100A80007095809590959B01AC01BD01CF010895B3
:040A9000F894FFCF08
:020A940004005C
:00000001FF
