:1000000016C01DC01CC01BC01AC019C018C017C024
:1000100016C015C014C013C012C011C010C00FC04C
:100020000EC00DC00CC040C08000040602001124A8
:100030001FBECFE5D4E0DEBFCDBF02D044C0E0CFCD
:10004000B99ABA9A8E9A8F9AA598AD9AA498AC9AB2
:1000500020E030E080E090E02BC041E09D9913C0AB
:10006000E7E8F3E13197F1F700C000009D990BC07C
:10007000413049F4FC01E370FF27E65DFF4FE49156
:10008000E8BB019640E09C9915C0E7E8F3E13197A1
:10009000F1F700C000009C99E1CF4130F9F6F90179
:1000A000E370FF27EA5DFF4FE491E2BB2F5F3F4F14
:1000B00040E0D4CFE7E8F3E13197F1F700C000006A
:0A00C0009D99CBCFCBCFF894FFCF72
:00000001FF
